:100FDB0009005600000000000000000000000000A7
:080FEB000000000000000000FE
:1008B000780E7C007D007BFF7A0F79DF7E007F144D
:1008C0001205157F007EC27D017C00120C677FE857
:1008D0007E03120F6B120FBA12002612003E754EE5
:1008E00001120021C374FF954CFDE4FF120EB6C344
:1008F00074FF954DFD7F01120EB6E54E700302099F
:10090000D77B007A00790EAF4CE4FCFDFE1209E4BF
:100910007525FF75260F7527DB7B007A00790E128F
:100920000CE07B007A00790E120F99740E2FF9E417
:10093000FAFBAF4DFCFDFE1209E47525FF75260F8D
:100940007527DB7B007A00790E120CE07B007A00C1
:10095000790E120F99740E2FF9E4FAFBAF49AE48E5
:10096000AD47AC461209E47525FF75260F7527DBE8
:100970007B007A00790E120CE07B007A00790E126F
:100980000F99740E2FF9E4FAFBC003C002C00112E4
:100990000E2DAC06AD07E412038B7B447A8B798471
:1009A00078401201567B007A407900784412025F49
:1009B000752902D001D002D00312070F7525FF75EB
:1009C000260F7527DD7B007A00790E120CE07B0084
:1009D0007A00790E12000E43C1107FC87E001210FB
:0409E0000A0208E11E
:100FF3007D017C00ED1D70011C144C70F7EF1F7018
:06100300011E144E70EA0C
:0110090022C4
:10100A007D517C04ED1D70011C144C70F7EF1F70AC
:06101A00011E144E70EAF5
:0110200022AD
:03102100014A0081
:080C67008F258E248D238C22C1
:100C6F00E4F529F528F527F52653B2FC53B1FC43DB
:100C7F00985053987F53898F438E40AB25AA24A950
:100C8F0023A822FF7EC07DA8FC120640E47B04FA55
:100C9F00F9F81206408F298E288D278C26C3E495EC
:100CAF0029F529E49528F52874019527F527E4956A
:100CBF0026F52685298BAF29AE28AD27AC267808D7
:100CCF001206F68F8D43B710D2BCD2ACD2AFD28EF4
:010CDF0022F2
:080003008F993099FDC299228A
:10000E0012053BFF600C120003740129F9E43AFA61
:03001E0080EE224F
:03002300020D3F8C
:090D3F00C0E0C0D075D000C0076F
:100D4800309840C298E54A14601814602014602452
:100D580014602824047029AF99EF64557025054A5A
:100D68008021AF99EF64AA7017054A801685994BC0
:100D7800054A800F85994C054A800885994D800061
:030D8800754A00A9
:070D8B00D007D0D0D0E03208
:0100210022BC
:0E09E4008B228A2389248F288E278D268C252E
:1009F200E4F52CF52BF52AF529753001F52FF52EA6
:100A0200F52DEC33501A1206D28F288E278D268CA4
:100A1200250524E5247002052314F9742D1205819D
:100A220085282C85272B85262A852529AF30AE2FB0
:100A3200AD2EAC2DE47B0AFAF9F81205B58F308E93
:100A42002F8D2E8C2DAF2CAE2BAD2AAC29AB30AA1C
:100A52002FA92EA82DD31206E040D1AF30AE2FAD74
:100A62002EAC2DE47B0AFAF9F8120E728F308E2F1B
:100A72008D2E8C2DAB30AA2FA92EA82DAF2CAE2BEC
:100A8200AD2AAC29120E72E47B0AFAF9F8120E7240
:100A9200EB2430FFAB220524E524AA2370020523B0
:100AA20014F9EF120581E47F01FEFDFCAB30AA2FA1
:100AB200A92EA82DD31206E050A1AB22AA23A92465
:040AC200E4020581C4
:0E070F008B228A2389248F288E278D268C2505
:10071D00E4F52DF52CF52BF52A753101F530F52F76
:10072D00F52E753501F534F533F532F539F538F526
:10073D0037F536FFFEFDFCAB28AA27A926A8251202
:10074D0002FC5026AF28AE27AD26AC251203758FBF
:10075D00288E278D268C25AB220524E524AA23700F
:10076D0002052314F9742D120581AF28AE27AD268D
:10077D00AC251203C48F2D8E2C8D2B8C2AEC1203DD
:10078D0086A804A905AA06AB07AF28AE27AD26ACEF
:10079D00251200618F398E388D378C36AF31AE30E2
:1007AD00AD2FAC2EE47B0AFAF9F81205B58F318E18
:1007BD00308D2F8C2EAF2DAE2CAD2BAC2AAB31AA9C
:1007CD0030A92FA82ED31206E040D1AF31AE30ADF7
:1007DD002FAC2EE47B0AFAF9F8120E728F318E309F
:1007ED008D2F8C2EAB31AA30A92FA82EAF2DAE2C6C
:1007FD00AD2BAC2A120E72E47B0AFAF9F8120E72C6
:10080D00EB2430FFAB220524E524AA237002052337
:10081D0014F9EF120581E47F01FEFDFCAB31AA3026
:10082D00A92FA82ED31206E050A1E52994007480BB
:10083D0094804064AB220524E524AA23700205238D
:10084D0014F9742E804DE529604E1529AF35AE345F
:10085D00AD33AC32E47B0AFAF9F81205B58F358E5B
:10086D00348D338C32EC120386AB39AA38A937A8F4
:10087D00361201561203C4E47B0AFAF9F8120E720D
:10088D00EB2430FFAB220524E524AA2370020523B7
:10089D0014F9EF12058180AEAB22AA23A924E4122C
:0208AD000581C3
:0108AF002226
:060F99008B2A8A2B892C33
:100F9F00E4FFAB2AAA2BA92C8F827583001205546C
:0A0FAF00FD3395E04D60030F80E86C
:010FB9002215
:060CE0008B228A23892407
:100CE600E4F528120F998F29E4F528AB25AA26A941
:100CF60027852882758300120554FF3395E04F60DF
:100D060024852882758300120554FFE528FDE52910
:100D16002DF582E433F583AB22AA23A924EF12052D
:100D260093052880C6E5282529F582E433F583ABAB
:090D360022AA23A924E40205937A
:100FBA0053B2F353B1F353D9F943D90843DA02438D
:100FCA00DA4043DB0243DB4053F2FD53F3FDD2DE4A
:010FDA0022F4
:100EB600EFFB7A007010EDF4700643F2028DFA2211
:100EC60053F2FD8DFA22EB64014A7010EDF47006C0
:100ED60043F3028DFB2253F3FD8DFB22EF64027078
:100EE6000FEDF4700643F4028DFC2253F4FD8DFCE5
:010EF60022D9
:04102400023A00008C
:100DE400E54024FE601A14602A2402703B74322504
:100DF4004CF54CD394FA74809480402C754C322278
:100E04007432254DF54DD394FA748094804019754D
:100E14004D32227432254CF54CD394FA748094806C
:090E24004003754C32854C4D224F
:100D92000540C3E5409404748094804003E4F54028
:100DA200E54014601014601514601A24037032E4D4
:100DB200F54CF54D22E54C7028754C3222E54D700C
:100DC20020754D3222E54C7003754C32E54D7003AF
:100DD200754D32E54CC3954D5004854D4C22854CE2
:020DE2004D22A0
:1000260053CADF53C9DF1200367FE87E03020F345E
:100EF70020CD05753C018007E4F53CF53FF542E55B
:100F07003C601BE53F7025D3E542941474809480C0
:100F17004008753F01E4F541800F75410122E54125
:0D0F2700600AE4F541AA0CA90D1207092289
:04003600438F2022B2
:04103A00538FDF22CF
:100F340043DC49AB07AA06E4F9F8FF7EC07DA8FCB0
:100F4400120E72E47B02FAF9F8120E728E3D8F3E95
:100F5400853EECE53DF5FCE53E253EF53EE53D33BD
:070F6400F53DD2AFD2DE2201
:03003B00020AC6F0
:100AC600C0E0C0F0C083C082C0D075D000C000C0F6
:0D0AD60001C002C003C004C005C006C00777
:100AE300C2DA853EECE53DF5FCE53E253EF53EE507
:100AF3003D33F53DC3E53B9405E53A9400401E754F
:100B03003A00753B00E53C6006E53F70020542D3C1
:100B1300E54294FA7480948040037542FA750BFFA2
:100B2300750C0D750D927BFF7A0D79E4120EF705A6
:070B33003BE53B7002053AAF
:100B3A00D007D006D005D004D003D002D001D0000F
:0B0B4A00D0D0D082D083D0F0D0E032B9
:03005B0002103E52
:04103E00753C0132CA
:0410420043870222BC
:10003E0053CAEF43C91043BA8090FEA8743FF053E1
:0C004E00BA7F75DE1F43DE2075BC042263
:0410460053BC7F22F6
:0A10300043BC807F057E0002100A19
:100E2D00E4F522F523F524F52512103043BC407F5F
:100E3D00037E00120FF3E5BC20E50C0525E52570BA
:100E4D00020524452470EF12104653BCDFAFBD756B
:100E5D0022008F23E523752300F522AFBEEF422339
:040E6D00AE22AF23DF
:010E7100225E
:071028000243000001450036
:100F6B00E4FCAB07AA06F9F8FF7EC07DA8120E724F
:100F7B00E47B0CFAF9F8120E72AC06AD07C3E49DD4
:0D0F8B00FDE49C8D8AF58CD2A9D2AFD28CEA
:010F98002236
:03000B00020BE104
:100BE100C0E0C0F0C083C082C0D075D000C000C0DA
:0D0BF10001C002C003C004C005C006C0075B
:100BFE00C3E54494E8E5439403403B7543007544D4
:100C0E0000E5492401F549E43548F548E43547F552
:100C1E0047E43546F546E54C7019E54D701505452A
:100C2E00C3E545940374809480400B754500121003
:0E0C3E004280037545000544E54470020543FD
:100C4C00D007D006D005D004D003D002D001D000FC
:0B0C5C00D0D0D082D083D0F0D0E032A6
:10005E00020430E86480F8E933E83360110460F09C
:10006E00ED33EC337009E8FCE9FDEAFEEBFF220408
:10007E0060DED3EB9FEA9EE99DE8C2E78CF0C2F703
:10008E0095F0400CE8CCF8E9CDF9EACEFAEBCFFBCF
:10009E001203FB85D0F05804700320D5B3E804702A
:1000AE00075002B2D502043A92D5EC0460F7E4CCC4
:1000BE00C0E0C398F8603B94186008400DD0E0FB98
:1000CE00020412E4FBFAC9FC8028E830E406E4C915
:1000DE00FBE4CAFCE830E305E4C9CACBFCE85407EC
:1000EE006010F8C3E913F9EA13FAEB13FBEC13FCF7
:1000FE00D8F130F52FC3E49CFCEF9BFFEE9AFEED9A
:10010E0099FDD0E0FBEF4E4D4C701222DB03020442
:10011E0037EC2CFCEF33FFEE33FEED33FDED30E725
:10012E00EB020412EF2BFFEE3AFEED39FDD0E0FBB1
:10013E0050130BBB000302043AED13FDEE13FEEF5A
:08014E0013FFEC13FC02041284
:10015600EC4D6011E8497017ED33EC3304600DE4A3
:10016600FCFFFEFD22E933E8330470F80204301286
:1001760003FB58046009E4CC248150062850090288
:10018600043A284003020437C0E0EB4A7044B980C1
:1001960006D0E0FB020426EF4E701CBD8008EBFF84
:1001A600EAFEE9FD80EBE98DF0A4FEE5F002023FF0
:1001B600E9CDF9EAFEEBFFEF89F0A4FCE5F0CE8984
:1001C600F0A42EFFE435F0CD89F0A42DFEE435F041
:1001D6008067EF4E7005BD80D780C3EF8BF0A4AC6F
:1001E600F0EE8BF0A42CFCE435F0F8EF8AF0A42CAA
:1001F600E5F038FCE433CB8DF0A42CFCE5F03BF8BD
:10020600EE8AF0A42CFCE5F038F8E433CF89F0A4AC
:100216002CFCE5F038CF3400CE89F0A42FFFE5F0B2
:100226003EFEE433C98DF0A42EFEE5F039CD8AF00A
:10023600A42FFFE5F03EFEE43DFD33D0E0FB500782
:100246000BBB000F02043AEC2CFCEF33FFEE33FE3F
:06025600ED33FD0204126D
:10025C0002043AEC5D046005E859047003020430B2
:10026C001203FB580460F6EC4860F2EC7004FDFEDF
:10027C00FF22C860DB2481C85009C3986002500675
:10028C000204379850CAF582E9294B4A7005AB82B3
:10029C0002042675F0007C1A7880C3EF9BEE9AED71
:1002AC0099400DC3EF9BFFEE9AFEED99FDE842F0ED
:1002BC00DC23ACF0D0E0FFD0E0FED0E0FDAB822040
:1002CC00E7101BEB60BAEC2CFCEF33FFEE33FEEDCA
:1002DC0033FD020412E803F830E705C0F075F000B6
:1002EC00EF2FFFEE33FEED33FD40B830E7C280AAAE
:1002FC0074F8CC6480CCC86480C8F58204604FC3A9
:10030C00EB9FF5F0EA9E42F0E99D42F0E89C45F047
:10031C00603C501DE5825FFFE582D313CB5BCBF4D1
:10032C002B5582FB50280ABA002409B900200880FA
:10033C001DE5825BFBE582D313CF5FCFF4C3132F94
:10034C005582FF50090EBE00050DBD00010CC3EB1C
:10035C009FF5F0EA9E42F0E99D42F0E89C45F06082
:09036C0007CC4820E701B3EC22A4
:10037500ED33EC33600A047003BD8004ECB2E7FC96
:010385002255
:1003860075F020800E75F010800575F0087D007EF2
:10039600007F003392D530D5031206D2EC334010DD
:1003A600EF33FFEE33FEED33FDEC33FCD5F0ED22FB
:0E03B600E5F0247EA2D513CC92E7CDCEFF2237
:1003C400EDD2E7CD33EC3392D524814006E4FFFE31
:1003D400FDFC22FCE4CFCECDCC24E0501174FF8090
:1003E400EDC3CC13CCCD13CDCE13CECF13CF04702D
:0703F400F030D5DE0206D255
:1003FB00E9D2E7C933E833F892D5EDD2E7CD33EC48
:07040B0033FC5002B2D522C0
:10041200EC30E7100FBF000C0EBE00080DBD00044B
:100422000BEB6014A2D5EB13FCED92E7FD2274FFF7
:10043200FCFDFEFF22E480F8A2D574FF13FC7D8050
:03044200E480EF64
:03000000020B559B
:0C0B5500787FE4F6D8FD75814E020B9C01
:10044500E709F608DFFA8046E709F208DFFA803E99
:1004550088828C83E709F0A3DFFA8032E309F60886
:10046500DFFA8078E309F208DFFA807088828C83EE
:10047500E309F0A3DFFA806489828A83E0A3F608A2
:10048500DFFA805889828A83E0A3F208DFFA804C7C
:1004950080D280FA80C680D4806980F28033801053
:1004A50080A680EA809A80A880DA80E280CA8033BC
:1004B50089828A83ECFAE493A3C8C582C8CCC58334
:1004C500CCF0A3C8C582C8CCC583CCDFE9DEE78004
:1004D5000D89828A83E493A3F608DFF9ECFAA9F083
:1004E500EDFB2289828A83ECFAE0A3C8C582C8CCD9
:1004F500C583CCF0A3C8C582C8CCC583CCDFEADEF2
:10050500E880DB89828A83E493A3F208DFF980CC53
:1005150088F0EF60010E4E60C388F0ED2402B4044C
:100525000050B9F582EB2402B4040050AF232345F3
:060535008223900495737F
:10053B00BB010689828A83E0225002E722BBFE02BE
:09054B00E32289828A83E49322F1
:10055400BB010CE58229F582E5833AF583E022505C
:1005640006E92582F8E622BBFE06E92582F8E222A6
:0D057400E58229F582E5833AF583E49322C0
:10058100BB010689828A83F0225002F722BBFE0159
:02059100F32253
:10059300F8BB010DE58229F582E5833AF583E8F09E
:1005A300225006E92582C8F622BBFE05E92582C84A
:0205B300F22232
:1005B500E88FF0A4CC8BF0A42CFCE98EF0A42CFCE5
:1005C5008AF0EDA42CFCEA8EF0A4CDA8F08BF0A463
:1005D5002DCC3825F0FDE98FF0A42CCD35F0FCEBC2
:1005E5008EF0A4FEA9F0EB8FF0A4CFC5F02ECD3987
:0F05F500FEE43CFCEAA42DCE35F0FDE43CFC22F4
:1006040075F008758200EF2FFFEE33FECD33CDCCAD
:1006140033CCC58233C5829BED9AEC99E582984030
:100624000CF582EE9BFEED9AFDEC99FC0FD5F0D60D
:10063400E4CEFBE4CDFAE4CCF9A88222B800C1B937
:100644000059BA002DEC8BF084CFCECDFCE5F0CB75
:10065400F97818EF2FFFEE33FEED33FDEC33FCEBAE
:1006640033FB10D703994004EB99FB0FD8E5E4F969
:10067400FA227818EF2FFFEE33FEED33FDEC33FC56
:10068400C933C910D7059BE99A4007EC9BFCE99A4A
:10069400F90FD8E0E4C9FAE4CCFB2275F010EF2F8F
:1006A400FFEE33FEED33FDCC33CCC833C810D7078F
:1006B4009BEC9AE899400AED9BFDEC9AFCE899F8CA
:0E06C4000FD5F0DAE4CDFBE4CCFAE4C8F9225D
:100E7200C2D5E830E70FB2D5E4C39BFBE49AFAE4AB
:100E820099F9E498F8EC30E717B2D5120EA81206D9
:100E920040E4C39BFBE49AFAE499F9E498F88003EE
:100EA20012064030D50DE4C39FFFE49EFEE49DFD93
:040EB200E49CFC229E
:0E06D200C3E49FFFE49EFEE49DFDE49CFC2239
:1006E000EB9FF5F0EA9E42F0E99D42F0EC6480C891
:0606F00064809845F02231
:1006F600E8600FECC313FCED13FDEE13FEEF13FFE2
:03070600D8F12205
:060709008A838982E4737B
:100B61000208B0E493A3F8E493A34003F68001F2F2
:100B710008DFF48029E493A3F85407240CC8C33395
:100B8100C4540F4420C8834004F456800146F6DF64
:100B9100E4800B0102040810204080901021E47EC3
:100BA100019360BCA3FF543F30E509541FFEE49359
:100BB100A360010ECF54C025E060A840B8E493A320
:100BC100FAE493A3F8E493A3C8C582C8CAC583CA4B
:100BD100F0A3C8C582C8CAC583CADFE9DEE780BE03
:01102F0000C0
:00000001FF
